:020000040800F2
:1000000048F60120D902000851490008774200084B
:100010004D490008250D000801810008000000007E
:10002000000000000000000000000000E976000869
:10003000A10F000800000000B7030008E1780008E5
:100040001303000813030008130300081303000838
:100050001303000813030008130300081303000828
:100060001303000813030008130300081303000818
:100070001303000813030008130300081303000808
:1000800013030008130300081303000813030008F8
:10009000130300081303000813030008E515000804
:1000A00013030008130300081303000813030008D8
:1000B0001303000813030008B979000813030008AC
:1000C00013030008130300081303000813030008B8
:1000D00013030008A9800008130300081303000895
:1000E0001303000813030008130300081303000898
:1000F0001303000813030008130300081303000888
:100100001303000813030008130300081303000877
:100110001303000813030008130300081303000867
:100120001303000813030008130300081303000857
:10013000130300088D1200081303000813030008BE
:100140001303000813030008130300081303000837
:100150001303000813030008130300081303000827
:100160001303000813030008130300081303000817
:100170001303000813030008BD0E00080000000070
:1001800013030008130300081303000813030008F7
:1001900013030008130300081303000813030008E7
:1001A00013030008130300081303000800F002F80B
:1001B00000F07AF80AA090E8000C82448344AAF187
:1001C0000107DA4501D100F06FF8AFF2090EBAE885
:1001D0000F0013F0010F18BFFB1A43F0010318477B
:1001E000707D0100907D010010F8013B0A4413F07E
:1001F000030408BF10F8014B1D1108BF10F8015B84
:10020000641E05D010F8016B641E01F8016BF9D172
:10021000002D15D010F8014B03F00C030C2BA1EBB3
:1002200004040ABF10F8013BA4EB8314A4EB0324DD
:1002300005F1010314F8016B5B1E01F8016BF9D5A0
:10024000914238BF10F8013BD1D3704700230024FE
:1002500000250026103A28BF78C1FBD8520728BFD6
:1002600030C148BF0B607047642900F05181752987
:1002700000F04E81782900F08781632900F06384C3
:10028000732900F06884002070471FB516F086FDC2
:1002900000F0D0FB04000020002116F0A7FB401C5A
:1002A00060601FBD10B510BD00F0FBFC1146FFF7EC
:1002B000ECFF0BF021FF00F027FD03B4FFF7F2FF86
:1002C00003BC07F026FF000030BF72B6704762B66D
:1002D000704780F30888704711488047DFF8440072
:1002E000016841F470010160BFF34F8FDFF83800FF
:1002F000016821F040410160BFF36F8F0B48004758
:10030000FEE7FEE7FEE7FEE7FEE7FEE7FEE7FEE7C5
:10031000FEE7FEE706480749074A084B704700001A
:100320000179000888ED00E034EF00E0AD0100083D
:1003300048F0012048F6012048F2012048F201204F
:10034000EFF3098141B1F1EE101A40F8041D20EDE0
:10035000200A29490A6810607047B0EC200A02C8D8
:10036000E1EE101A25490A6810607047EFF310801B
:1003700072B6704780F31088704721484FF0FF0134
:100380000170002080F309881E48016881F3088805
:100390001D48012101701D484FF08051016062B677
:1003A000FEE71A484FF080510160704717484FF040
:1003B00080510160704772B6EFF3098028B1203890
:1003C00080E8F00F0C490968086000B510488047C4
:1003D0005DF804EB0F4810490A7802700648074997
:1003E0000A680260106890E8F00F203080F30988F6
:1003F0004EF0F40E62B67047C00D0020C80D00200C
:1004000022ED00E0E00D0020BA0D002004ED00E038
:1004100051590008AF0D0020B00D002070470000BA
:1004200010B500F007FB001D10BD00BFC165010045
:100430000FB4044910B503AA029800F091FB10BC58
:100440005DF814FB240000200FB41CB5074B06AA6E
:100450007B4469460090059800F053FB00206946F4
:1004600000F062FB1CBC5DF814FB0000D506000028
:1004700070B5044685690068C10601D5302600E0E4
:100480002026C00707D070BDD4E90121304690472F
:10049000206A401C20626D1EF6D570BD70B5044602
:1004A00085690078C00707D170BDD4E901212020FB
:1004B0009047206A401C20626D1EF6D570BD70B555
:1004C0000C460546012A05D02878800600D5EA6941
:1004D000002302E0012305E05B1C934202D2E05CB2
:1004E0000028F9D1A869E618C01AA861286A18443A
:1004F00028622846FFF7BCFF04E0D5E9012114F883
:10050000010B9047B442F8D32846FFF7C7FF70BDF0
:100510002DE9F0410646002410687529314616A5DC
:1005200010D0AFF30080002802DA404213A507E0A4
:1005300031688A0701D512A502E0490704D511A543
:10054000012401E0AFF3008000210A2206F1240714
:1005500009E0B0FBF2FCB0FBF2F302FB1C00303010
:1005600078541846491C0028F3D123462A463046C1
:10057000BDE8F04100F066BA000000002D00000068
:100580002B0000002000000070B504460D462146F7
:100590001068AFF300802188090502D50F4A7A441C
:1005A00002E00E4A7A440E32002104F1240305E0F1
:1005B00000F00F060009965D5E54491C0028F7D133
:1005C00020780023000704D5702D02D009B1022342
:1005D00011322046BDE8704000F034BAC676010002
:1005E0002DE9F05F894604464FF0000ADFF874B148
:1005F000FB44C0F820A02046E1688847002874D05A
:10060000252806D0D4E901219047206A401C2062A9
:10061000F1E700265F462046E16888472028054626
:1006200007DB312D05D2781910F8200C08B10643EC
:10063000F1E7B00701D526F00406C4F81CA0002796
:10064000C4F818A02A2D09D0284607F05BFD38B35E
:1006500004EB8708303DC8F8185019E059F8041B1E
:10066000204604EB87029161E1688847012F054627
:1006700018D1E069002820DA26F020061DE0D8F81D
:10068000180000EB800005EB40003038C8F8180077
:100690002046E1688847054607F034FD0028EED182
:1006A000012F0AD02E2D08D12046E16888477F1CF3
:1006B0000546022F46F02006C4DBA069002803DAB5
:1006C000404246F00106A061F00701D026F0100676
:1006D0006C2D0BD0682D09D04C2D39D06A2D35D01A
:1006E000742D35D07A2D33D016E038E0E1682F46EE
:1006F00020468847B842054609D16C2F26D04FF4D2
:100700008060E168064320468847054604E06C2F78
:100710001AD04FF4807006430DB3A5F1410019289B
:1007200002D8203546F400664A462946204626600F
:100730004E46FFF799FD80B101280BD0F61D26F03B
:10074000070000F1080956E74020E4E78020D8E7D9
:100750000020D6E706F104094DE7284652E7206A53
:10076000BDE8F09F9C76010070B5064600F066F982
:100770000468054630460A22002100F003FA2C6086
:1007800070BD401ECAB210F8011F8A4202D0002973
:10079000F9D10020704740EA010310B59B070FD143
:1007A000042A0DD310C808C9121F9C42F8D020BAE1
:1007B00019BA884201D9012010BD4FF0FF3010BD99
:1007C0001AB1D30703D0521C07E0002010BD10F867
:1007D000013B11F8014B1B1B07D110F8013B11F82D
:1007E000014B1B1B01D1921EF1D1184610BD10B553
:1007F000431C02E010F8011B71B18107FAD14FF0E0
:10080000013202C88C1A8C4314EAC211F9D0C01A02
:100810000A0603D0C01E10BDC01A10BD0A0401D0C4
:10082000801E10BD0902FCD0401E10BD032A40F2FC
:10083000308010F0030C00F0158011F8013BBCF182
:10084000020F624498BF11F801CB00F8013B38BF9A
:1008500011F8013BA2F1040298BF00F801CB38BFA8
:1008600000F8013B11F0030300F02580083AC0F0C6
:10087000088051F8043B083A51F804CBA0E808106E
:10088000F5E7121D5CBF51F8043B40F8043BAFF3A1
:100890000080D20724BF11F8013B11F801CB48BFFB
:1008A00011F8012B24BF00F8013B00F801CB48BF31
:1008B00000F8012B704710B5203AC0F00B80B1E86A
:1008C0001850203AA0E81850B1E81850A0E8185085
:1008D000BFF4F5AF5FEA027C24BFB1E81850A0E88E
:1008E000185044BF18C918C0BDE810405FEA827CA8
:1008F00024BF51F8043B40F8043B08BF7047D207BF
:1009000028BF31F8023B48BF11F8012B28BF20F85F
:10091000023B48BF00F8012B70474FF0000204294A
:10092000C0F0128010F0030C00F01B80CCF1040C1E
:10093000BCF1020F18BF00F8012BA8BF20F8022B52
:10094000A1EB0C0100F00DB85FEAC17C24BF00F8F8
:10095000012B00F8012B48BF00F8012B70474FF026
:10096000000200B5134694469646203922BFA0E8FF
:100970000C50A0E80C50B1F12001BFF4F7AF09070B
:1009800028BFA0E80C5048BF0CC05DF804EB8900FC
:1009900028BF40F8042B08BF704748BF20F8022B3F
:1009A00011F0804F18BF00F8012B70474FF0013C49
:1009B00050F8042B51F8043B9A4221D1A2EB0C03CE
:1009C000934313EACC1317D150F8042B51F8043B8E
:1009D0009A4215D1A2EB0C03934313EACC130BD12B
:1009E00050F8042B51F8043B9A4209D1A2EB0C03B6
:1009F000934313EACC13DBD04FF00000704700BFE5
:100A0000D01A01BAB1FA81F101F0180122FA01F00D
:100A1000CB40C1F12001DBB2C0B2C01A2CFA01F305
:100A2000D11A914311EAC311E6D17047704770475C
:100A3000704770470048704708F001200048704731
:100A4000E8EF01202DE9F0470D469946924604460D
:100A500000F124080168880604D5E06921F010013E
:100A6000216000E00120A84201DD471B00E00027D3
:100A7000A1697A1902EB0900081AA0612078C00662
:100A800002D42046FFF7F4FC002608E0D4E9012157
:100A90001AF806009047206A401C761C20624E45DA
:100AA000F4DB2078C0060AD52046FFF7E1FC06E01B
:100AB000D4E9012130209047206A401C2062381E72
:100AC000A7F10107F4DC07E0D4E9012118F80500DB
:100AD0009047206A401C2062281EA5F10105F3DC26
:100AE0002046FFF7DBFC2078000602D50220BDE897
:100AF000F0870120FBE7000001694A1C02610878C9
:100B0000704700B58FB0CDE901310021059105494D
:100B10007944CDE9031011466846FFF761FD0FB037
:100B200000BD0000E5FFFFFF0A6802F8010B0A6044
:100B3000704710B5436913B1AFF3008001E0FFF7D0
:100B4000BEFC012010BD127800F124010A700022C1
:100B50004A700122EDE711684FF0FF32E9E700002B
:100B6000074B70B50D467B44FFF7CBFF0446284684
:100B700000F093F810B14FF0FF3070BD204670BD0B
:100B8000279700002DE9F04791460F46804604461E
:100B9000002614F8015B2DB1FFF742FC0068405DB0
:100BA000C007F6D12B2D02D02D2D18D0641E4A4639
:100BB0003946204600F022F827B13968A14201D118
:100BC000C7F800804FF0020471050BD540420028A1
:100BD00003DDFFF733FF0460A007BDE8F08746F4AC
:100BE0008066E4E70028F8DAFFF728FF04606FF07A
:100BF0000040F2E700487047E8EF01202DE9F05F80
:100C0000824615468B4600270AF10104B946007852
:100C1000302801D09DB113E014F8010B012778288A
:100C200003D0582801D045B10AE00DB1102D07D1ED
:100C3000002714F8010B102502E0082500E00A2522
:100C40000026B0460EE005FB080005FB06F1012773
:100C50001FFA80F801EB1046B6F5803F00D3B94685
:100C600014F8010B294600F041F80028EBDABBF13B
:100C7000000F05D00FB1641E00E05446CBF80040D1
:100C8000B9F1000F06D0FFF7D9FE02210160C81E9E
:100C9000BDE8F09F48EA0640FAE7007B00F08000DC
:100CA00070477546FFF7A6FFAE46050069465346F6
:100CB00020F00700854618B020B5FFF72BFBBDE8F4
:100CC00020404FF000064FF000074FF000084FF0B3
:100CD000000B21F00701AC46ACE8C009ACE8C00944
:100CE000ACE8C009ACE8C0098D4670473A2800D28C
:100CF000303820F02002412A01D3A2F13700884287
:100D000001D34FF0FF3070470446AFF30080204618
:100D1000FFF7D3FA704770477047704770477047C6
:100D20007047704700BFFEE72DE9F05F0546894632
:100D300092461F46DDE90A8B2E46FF2006F8010B7E
:100D4000D82006F8010B0224304603F0E1FB0444EE
:100D50002E193A465946304600F0D4F904442E196B
:100D60003B4652464946304600F0A6FE04442E1942
:100D700000221749304600F088F904442E19102249
:100D80001449304600F00DF90444022F0ED02E19FC
:100D900001220F494031304600F077F904442E1902
:100DA00011220D49304600F0FCF80444B8F1000F60
:100DB00005DD2E194146304600F010FA04442E1984
:100DC0003946304606F091FC04442046BDE8F09FC9
:100DD0008806002008010020C80300202DE9F84300
:100DE00006460C4615461F46DDF8208000BF002051
:100DF00000902D48006840F480002B4908600846A8
:100E0000006800F48000009000BF00BF00BF2748CA
:100E10002749886308462549886300BF254808603C
:100E20004FF000704860002120488160C160C0F828
:100E300010804FF48051416187610911C1614902FD
:100E4000016204214162012181620021C1620163CA
:100E500001F0B9F9154801F0E9F900BF0020134984
:100E600081F8340000BF34B92B46324612490F488E
:100E700001F01EFA16E0234632460F490B48009552
:100E800001F031F909480068006840F01000074996
:100E90000968086000221146392002F03DF9392026
:100EA00002F02DF9BDE8F883303802402017002009
:100EB000E0160020286402402800055010B50248C2
:100EC00000F074FF10BD0000E016002010B50848C7
:100ED0000849086000204860202106488160002100
:100EE000C16001614161816100F0F8FF10BD000047
:100EF00000000550E016002007480068006840F038
:100F000001000549096808600448006840F00100D4
:100F100002490860704700002017002000000550BB
:100F20000146087810381823B0FBF3F20848805CBB
:100F30004865032A05D908686FF30900001D086594
:100F400003E008686FF309000865086D704700004A
:100F5000B66D010810B5046863608468402C04D144
:100F60000468A2600468E16003E00468A1600468AA
:100F7000E26010BD30B50468246824F4802405685C
:100F80002C60046863608468402C04D10468A2600B
:100F90000468E16003E00468A1600468E26030BDB9
:100FA00070472DE9F04703460D461746FF2003F82A
:100FB000010BC42003F8010B1E465B1C5B1C03F8ED
:100FC000017B002210E04FF00009002107E055F8F6
:100FD0002100B2EB102F01D109F10109491CA2290E
:100FE000F5DB03F8019B521C102AECDB13240022D2
:100FF00042E0D5F88002B2EB102F03D1002003F8B5
:10100000010B641C002113E055F82100B2EB102FF6
:101010000DD10A2091FBF0FC91FBF0FA00FB1A18AD
:1010200008F1010040EA0C1003F8010B641C491C94
:101030009629E9DBD5F88402B2EB102F03D1F0201A
:1010400003F8010B641C962113E055F82100B2EB64
:10105000102F0DD10A2091FBF0FC91FBF0FA00FB60
:101060001A1808F1010040EA0C1003F8010B641C87
:10107000491CA029E9DB521C102ABADB200A06F819
:10108000010B3470A01CBDE8F087F0B503460E4696
:101090001746FF2003F8010BC42003F8010B1D467F
:1010A0005B1C5B1C03F8017B002210E04FF0000C7E
:1010B000002107E056F82100B2EB102F01D10CF10E
:1010C000010C491C0C29F5DB03F801CB521C102A3A
:1010D000ECDB132400220DE0002108E056F821008B
:1010E000B2EB102F02D103F8011B641C491C0C2920
:1010F000F4DB521C102AEFDB200A05F8010B2C70E0
:10110000A01CF0BDF0B590B003460D461646022E69
:1011100001D1432200E08422FF2003F8010BDB20F1
:1011200003F8010B100A03F8010B03F8012B002050
:1011300003F8010B002114E0254F7F5C6F4307F19A
:101140001000C71700EBD7677C11002C00DC0124CE
:10115000FF2C00DDFF24E0B21E4F7F5C0DF807007E
:10116000491C4029E8DB002104E01DF8010003F8D8
:10117000010B491C4029F8DB022E02D1901C10B053
:10118000F0BD012003F8010B002114E0124F7F5C39
:101190006F4307F11000C71700EBD7677C11002CD5
:1011A00000DC0124FF2C00DDFF24E0B2094F7F5C4E
:1011B0000DF80700491C4029E8DB002104E01DF878
:1011C000010003F8010B491C4029F8DB901CD6E70D
:1011D00046000020C6000020860000200246FF20B6
:1011E00002F8010BDD2002F8010B002002F8010BD0
:1011F000042002F8010B080A02F8010B02F8011B97
:1012000006207047016801F58051896941F00202AA
:10121000016801F580518A617047016801F58051CC
:10122000896941F40052016801F580518A61704773
:1012300038B5044600200090206800F58050806991
:1012400040F48011206800F580508161206800F52D
:10125000805080690090012001F053F800992068C7
:1012600000F58050816138BD014600200A6802F017
:10127000004252B90A6802F4004232B90A6802F424
:10128000807212B10A68C2F30D40704710B503F0C6
:10129000D9FB01E00AF0F8FE0A49886AFFF7E4FF8B
:1012A0000028F7D140210748006800F580504161CF
:1012B00089020448006800F58050416103F0D4FBC6
:1012C00010BD00004016002030B503461479557952
:1012D00044EA0520084C0C442064D4782406957810
:1012E00044EA0544557844EA0524157844EA0500A3
:1012F000014C0C44606430BD0080024070B5AEB05B
:1013000004460E46002526B14FF40061E160C90095
:10131000A1600020119012901390149015901690D7
:10132000E06918B94FF48060179001E00020179031
:101330004FF400701890002019901A901B901C9088
:101340001D9040201E9000201F9020902190229000
:10135000239024902590269080202790002028908C
:1013600029902A902B902C902D9020680568714828
:101370000540DDE911010843139908431499084316
:10138000A16808431599084316990843E168084382
:101390001799084318990843199908431A9908435B
:1013A0001B990843054320680560206805680120F3
:1013B00000F0A7FF20680560DDE91C0108431E99C5
:1013C00008431F990843209908432199084322990B
:1013D0000843239908432168486020684568012034
:1013E00000F08FFF20684560249821688860259868
:1013F0002168C860206885694FF641700540DDE9C5
:10140000261040EA014028990843299908432A995F
:1014100008432B9908430543206885612068856946
:10142000012000F06EFF20688561DDE92C01084392
:101430002168C8612068C569012000F062FF20684A
:10144000C561002001904FF00070029000200390D1
:101450004FF400100490002005900690079008902B
:1014600004200990C0050A9040120B9080010C9056
:1014700040120D9080200E9000200F901090206858
:1014800000F5805085692C480540DDE901010843DD
:1014900003990843049908430599084306990843AA
:1014A00007990843089908430999084305432068A8
:1014B00000F580508561206800F580508569012025
:1014C00000F01FFF206800F580508561DDE90A010A
:1014D00008430C9908430D9908430E9908430F9946
:1014E00040EA81001099084340F40001206800F5AB
:1014F00080500160206800F580500568012000F0F0
:1015000000FF206800F580500560A069012809D11E
:10151000206800F58050C06908490843216801F53A
:101520008051C861002120466269FFF7CDFE2EB0D0
:1015300070BD00000F8120FF233FDEF84000010056
:1015400038B50446002000902068006840F0040090
:1015500021680860206800680090012000F0D1FE3A
:1015600000982168086038BD38B504460020009016
:101570002068006840F00800216808602068006862
:101580000090012000F0BDFE00982168086038BD81
:1015900010B54FF4A07100200BF06AFB0D490860F4
:1015A000A02100200BF064FB0B49086043F6883152
:1015B00000200BF05DFB0949086041F6C451002092
:1015C0000BF056FB0649086000BF00BF00BF00BF1C
:1015D000002010BD2C00002030000020340000202E
:1015E0003800002010B5402001F0AEFB10BD000017
:1015F00000B587B000BF002001901048006840F09F
:1016000040000E4908600846006800F04000019064
:1016100000BF00BF402002900948039001200490C1
:1016200002A9084801F09EFB04220221172001F0C4
:1016300073FD172001F063FD07B000BD3038024094
:10164000000031100018024010B5002201B909E075
:10165000012901D10A0205E0022901D10A0201E0B3
:101660004FF440720B2800D9001D114B1B6823F466
:1016700040730F4C236023461B68134323602346AB
:101680001B6823F0F803236023461B68F82494FAB0
:10169000A4F4B4FA84F400FA04F444F002042343FA
:1016A000034C236023461B6843F48033236010BD42
:1016B000103C02401C48006800F40070B0B11A48A9
:1016C000006820F400701849086000BF08460068F0
:1016D00040F4006008600846006820F4006008607C
:1016E00000BF0846006840F4007008600E480068BB
:1016F00000F48060B0B10C48006820F480600A49B2
:10170000086000BF0846006840F480500860084642
:10171000006820F48050086000BF0846006840F46C
:101720008060086070470000003C024010B502462F
:101730000020144B1B6823F44073124C2360234693
:101740001B6803432360032906D123461B68E41367
:1017500023430C4C23600EE0012906D1094B1B6882
:1017600043F00403074C236005E0064B1B6843F479
:101770000043044C2360034B1B6843F48033014C4B
:10178000236010BD103C0240074A126822F44072E8
:10179000054B1A601A4612681A601A46126842F01F
:1017A00001021A6001707047103C024010B50949EF
:1017B000096821F44071074C21602146096841F411
:1017C000407121602146096841F0010121600260F9
:1017D000436010BD103C0240084A126822F4407277
:1017E000064B1A601A46126842F480721A601A4652
:1017F000126842F001021A6001807047103C0240FA
:10180000084A126822F44072064B1A601A4612689F
:1018100042F400721A601A46126842F001021A601D
:1018200001607047103C02402A480068C0F3001075
:1018300040B12948C06940F010002749C861102014
:101840002449086023480068C0F3401040B1224892
:10185000C06940F008002049C86120201D49086087
:101860001C480068C0F3801040B11B48C06940F0BC
:1018700004001949C86140201649086015480068ED
:10188000C0F3C01040B11448C06940F002001249D2
:10189000C86180200F4908600E480068C0F300202E
:1018A00048B10D48C06940F001000B49C8614FF4D0
:1018B00080700849086007480068C0F3400040B1E4
:1018C0000548C06940F020000349C8610220014971
:1018D000086070470C3C0240E414002070B50446D8
:1018E000002500201749C86101F050FB054609E0BA
:1018F000601C38B124B101F049FB401BA04201D962
:10190000032070BD10480068C0F300400028EFD1EC
:101910000D48006800F0010010B101200A4908607C
:101920000948006800F4F970B0F5F97F01D1012091
:1019300000E0002018B1FFF777FF0120E1E7002069
:10194000DFE70000E41400200C3C024030B5024602
:10195000002300240868012816D013686FF30E03D3
:10196000D1E901052843CD6828430D6928434D6915
:1019700028438D692843CD6928430D6A28434D6A61
:1019800028430343136019E013686FF30E03D1E992
:10199000070528434D6A2843034354686FF30E0438
:1019A000D1E901052843CD6828430D6928434D69D5
:1019B00028438D692843044313605460002030BDE0
:1019C0000246506940EA4100506100207047F8B576
:1019D00006460C461546002000900027D4E9000179
:1019E0000843A168491E40EA4110E16840EA4120ED
:1019F00000900098306101F0C9FA074609E0681CC0
:101A000038B125B101F0C2FAC01BA84201D90320A8
:101A1000F8BDB06900F020000028F0D100BFF7E762
:101A200070B50346154600220024012D1FD09A6888
:101A300002F070420868401E4E68761E40EA0616A4
:101A40008868401E46EA0026C868401E46EA0036FE
:101A5000088A401E46EA0046888A401E46EA00562A
:101A6000087E401E46EA006002439A6022E0DA687F
:101A700002F070420868401E4E68761E40EA061664
:101A80008868401E46EA0026088A401E46EA00464C
:101A9000087E401E46EA006002439C6804F07044E1
:101AA000C868401E0603888A401E46EA0050044368
:101AB000DA609C60002070BD30B504460D46022BF4
:101AC00001D10B2100E01121FF2004F8010BC020FF
:101AD00004F8010B080A04F8010B04F8011B0820A4
:101AE00004F8010B100A04F8010B04F8012B280A72
:101AF00004F8010B04F8015B022B0CD1012004F85F
:101B0000010B002004F8010B112004F8010B002048
:101B100004F8010B3DE0F3B9032004F8010B0020A9
:101B200004F8010B212004F8010B002004F8010B3C
:101B3000012004F8010B112004F8010B012004F826
:101B4000010B022004F8010B112004F8010B012005
:101B500004F8010B1DE0032004F8010B002004F839
:101B6000010B222004F8010B002004F8010B0120D6
:101B700004F8010B112004F8010B012004F8010BFB
:101B8000022004F8010B112004F8010B012004F8D5
:101B9000010B881C30BD000010B504460020E07128
:101BA00043A12046FEF702FF08B9012010BD42A163
:101BB0002046FEF7FBFE08B90220F7E740A12046C9
:101BC000FEF7F4FE08B90320F0E73FA12046FEF738
:101BD000EDFE08B90420E9E73DA12046FEF7E6FE48
:101BE00008B90520E2E73CA12046FEF7DFFE08B970
:101BF0000620DBE73AA12046FEF7D8FE08B9072009
:101C0000D4E739A12046FEF7D1FE08B90820CDE778
:101C100037A12046FEF7CAFE08B90920C6E736A15B
:101C20002046FEF7C3FE08B90A20BFE734A12046CC
:101C3000FEF7BCFE08B91020B8E733A12046FEF736
:101C4000B5FE08B91120B1E731A12046FEF7AEFE7E
:101C500008B91220AAE730A12046FEF7A7FE08B96E
:101C60001320A3E72EA12046FEF7A0FE08B91420FA
:101C70009CE72DA12046FEF799FE08B9152095E7AF
:101C80002BA12046FEF792FE08B916208EE72AA166
:101C90002046FEF78BFE08B9172087E728A12046CB
:101CA000FEF784FE08B9182080E7FF207EE70000D9
:101CB0007365746D6F643A007365746361703A00A4
:101CC0007365746970613A00736574706F743A007B
:101CD00073657473697A3A007365747261743A005B
:101CE0007365746272743A00736574636F6E3A0060
:101CF0007365746578703A00736574706F6C3A0040
:101D00006765747665723A006765746970613A0058
:101D1000676574706F743A0067657473697A3A0026
:101D20006765747261743A006765746272743A0030
:101D3000676574636F6E3A006765746578703A0022
:101D40006765746865703A000246002103E0491C2B
:101D5000142900DD02E0505C0028F8D100BF1429EE
:101D600001DDFF207047C8B2FCE7704710B504469C
:101D700009F064FD0A48006808B9012000E000206D
:101D80000749086007480078401C06490870064863
:101D90000068C06840F0010003490968C86010BDD0
:101DA000A00240423C000020E016002010B504468E
:101DB0002068806800F00400F8B12068006900F035
:101DC0000400D0B12068C06820F004002168C86019
:101DD000042021684861E06B40F00200E0630420C9
:101DE00084F8250000BF002084F8240000BFA06B09
:101DF00000F0BAF92046FFF7B8FF2068806800F0CD
:101E00000200F8B12068006900F00200D0B120683B
:101E1000C06820F002002168C86002202168486183
:101E2000E06B40F00100E063042084F8250000BF6F
:101E3000002084F8240000BFA06B00F095F9204634
:101E4000FFF793FF2068806800F0100078B12068E9
:101E5000006900F0100050B110202168486100BFF7
:101E6000002084F8240000BF204600F09BF8206882
:101E7000806800F00800A8B12068006900F0080040
:101E800080B12068C06820F008002168C860082080
:101E90002168486100BF002084F8240000BF20466C
:101EA00000F020F92068806800F00100A8B12068E7
:101EB000006900F0010080B12068C06820F00100D6
:101EC0002168C86001202168486100BF002084F8B3
:101ED000240000BF2046FFF749FF10BD10B504469F
:101EE0000CB9012010BD94F8250010B9204600F06F
:101EF0005BF8022084F825002068006840F6F8713D
:101F0000884321680860616960680843E1680843A4
:101F100021690843A1680843A1690843216A08436D
:101F200021680968084321680860606810280BD19F
:101F3000217F607F41EA0021A07F41EA0041E07FEC
:101F400041EA0060164988612068C06840F01000CE
:101F50002168C8602068C06840F008002168C86037
:101F60002068C06840F001002168C8602068C0682F
:101F700040F004002168C8602068C06840F002009A
:101F80002168C8602068006840F4804021680860CB
:101F90000020E063012084F825000020A2E7000073
:101FA000000005507047000010B586B0044600BF21
:101FB000002000904548006840F001004349086057
:101FC0000846006800F00100009000BF00BF00BF9D
:101FD00000200090081F006840F00100091F086001
:101FE0000846006800F00100009000BF00BF00BF7D
:101FF000002000900846006840F002000860084693
:10200000006800F00200009000BF00BF00BF002089
:1020100000900846006840F0040008600846006828
:1020200000F00400009000BF00BF00BF002000903F
:102030000846006840F0080008600846006800F0A4
:102040000800009000BF00BF00BF002000900846BD
:10205000006840F0800008600846006800F08000DA
:10206000009000BF00BF402001900220029001209C
:102070000390032004900D20059001A9144800F05E
:1020800071FE4FF46070019001A9124800F06AFEE1
:102090004FF43C60019001A90F4800F063FE082056
:1020A000019001A90D4800F05DFE4FF48070019091
:1020B00001A90B4800F056FE002211464E2001F007
:1020C0002BF84E2001F01BF806B010BD343802404A
:1020D000000002400004024000080240000C0240E0
:1020E000001C024070472DE9F04104460E46174699
:1020F0001D46DDF8188000BF94F83400012802D195
:102100000220BDE8F081012084F8340000BF20687F
:10211000006800F4002018B9122084F8350007E0A8
:102120002068006800F4002010B1222084F83500F7
:102130002068006820F001002168086020680068BD
:1021400040F48020216808602068056143463A46D3
:1021500031462046FEF7FEFE2068006840F0010090
:10216000216808600020CCE770B50446002520688F
:10217000006820F001002168086000F007FF0546B4
:1021800012E000F003FF401BB0F57A7F0CD9E06C41
:1021900040F02000E06400BF002084F8340000BF5D
:1021A000032084F8350070BD2068006800F001004D
:1021B0000028E6D100BF84F8340000BF012084F875
:1021C00035000020EFE770B504460CB9012070BD62
:1021D00094F83500022801D10120F8E72068006852
:1021E00020F0010021680860002021680860216853
:1021F0004860216888602168C860216808612120E2
:10220000216848612046FEF78BFE054694F854107D
:102210003F208840A8600020E06484F8350000BFBB
:1022200084F8340000BF00BFD1E7000070B5044659
:1022300000250CB9012070BD606A00B100BF02200A
:1022400084F835002068056818480540D4E9010184
:102250000843E16808432169084361690843A169AB
:102260000843E1690843216A08430543606A04287A
:1022700003D1D4E90B0108430543206805602068B9
:10228000456925F00705606A0543606A042801D1A5
:10229000A06A0543206845612046FEF741FE002004
:1022A000E064012084F835000020C4E73F8010F08E
:1022B0002DE9F04104460D4616461F4600BF94F82E
:1022C0003400012802D10220BDE8F081012084F809
:1022D000340000BF022084F835002068006820F038
:1022E0000100216808603B46324629462046FEF739
:1022F00041FE2068006840F001002168086000206D
:10230000E2E731B5002400F041FE044600BF00F0D2
:102310003DFE001B00998842F9D338BD70B50446D4
:102320000D461646002200BF94F84500012801D151
:10233000022070BD012084F8450000BF022084F80F
:102340004400A56200221FE005EB42114FF000405F
:10235000086044F2F4504860C2EBC21000EB400049
:1023600006EB80008860A069012803D1486820F04E
:1023700000404860581E904204D905EB42102030BE
:10238000C86000E0CD60521C9A42DDD3206800F5A1
:102390008050C560012084F8440000BF002084F80C
:1023A000450000BF00BFC4E770B504460D461646A1
:1023B000002200BF94F84500012801D1022070BD21
:1023C000012084F8450000BF022084F84400E56243
:1023D00000221BE005EB42114FF480100860C2EBB5
:1023E000C21000EB400006EB80008860E06918B97D
:1023F000086840F440000860581E904204D905EB7C
:1024000042102030C86000E0CD60521C9A42E1D3F7
:10241000206800F580500561012084F8440000BF69
:10242000002084F8450000BF00BFC8E70146002235
:1024300000BF91F84500012801D10220704701201A
:1024400081F8450000BF022081F84400886A0068D6
:1024500000F00040002838D1886A006800F48070DD
:10246000F0B1886B401C8863886B012801D1886AB1
:1024700008638B6A4B63886A0068C0F30D40021FD3
:10248000CA63086B83680B64886AC068886201202D
:1024900081F8440000BF002081F8450000BFCDE76F
:1024A000886A006800F4007048B1886A08630023F5
:1024B0004B6301238B63886AC068886205E0886B80
:1024C000401C8863886AC0688862012081F84400E3
:1024D00000BF002081F8450000BF0120AEE70000EA
:1024E000FEB50446002500200290874E019000278B
:1024F0000CB90120FEBD94F8440028B9002084F8EE
:102500004500204600F00EF900BF002000907F48F3
:10251000006840F480407D4908600846006800F487
:102520008040009000BF00BF7948006820F40000A0
:102530007749086008460068216A084374490860C2
:10254000206800F58050006840F00101206800F527
:102550008050016000BF206800F58050006800F0E6
:1025600001000028F7D12068056925F01C0500F05E
:10257000F1FF06466748864205D36748864202D285
:1025800045F008051AE06448864205D35E48864255
:1025900002D245F00C0511E05B48864203D35F4848
:1025A000864200D20AE05D48864205D35C488642F6
:1025B00002D245F0040501E045F0100520680561F0
:1025C000606800287ED000F0E1FC019000BF02AA04
:1025D0000121204600F04CF900F0D8FC0199401A86
:1025E00042F2107188420ED9012739462046FEF783
:1025F00085FE012084F8440000BF002084F84500D7
:1026000000BF032076E7029800F004000428DED122
:1026100082020021204600F03BFA40B101273946F2
:102620002046FEF76BFE012084F8440062E700F0CC
:10263000ADFC019000BF02AA0121204600F018F96C
:1026400000F0A4FC0199401A42F2107188420ED9A0
:10265000012739462046FEF751FE012084F8440048
:1026600000BF002084F8450000BF032042E7029825
:1026700000F020002028DED102AA1F21204600F011
:10268000F7F840B1012739462046FEF737FE012012
:1026900084F844002EE7029800F0100020B14FF4B7
:1026A0000061E16002E00DE00021E160029800F0CD
:1026B0000400042802D10021A1601CE04FF48041F5
:1026C000A16018E0E068C0F3CF00A168C1F34F013A
:1026D00040EA01020021204600F0DAF940B101276A
:1026E00039462046FEF70AFE012084F8440001E73F
:1026F000FF20FFF706FE39462046FEF7FFFD0120CA
:1027000084F844000020F5E6008793034438024033
:1027100004380140002D3101C00E160200E1F5051C
:1027200080D1F00810B586B0044600BF00BF00207D
:1027300000904A48006840F0007048490860084628
:10274000006800F00070009000BF00BF00BF0020D4
:1027500000900846006840F0806008600846006805
:1027600000F08060009000BF00BF00BF002000901C
:102770000846006840F0006008600846006800F005
:102780000060009000BF00BF00BF00BF00200090AD
:102790000846006840F0010008600846006800F044
:1027A0000100009000BF00BF00BF0020009008465D
:1027B000006840F0020008600846006800F002006F
:1027C000009000BF00BF00BF0020009008460068D6
:1027D00040F0040008600846006800F00400009023
:1027E00000BF00BF00BF002000900846006840F016
:1027F000400008600846006800F04000009000BFFC
:1028000000BF862001900220029000200390032048
:1028100004900B20059001A9114800F0A3FA4FF491
:102820000060019001A90F4800F09CFA322001904D
:1028300001A90D4800F096FA4FF4C040019001A99B
:102840000A4800F08FFA002211463D2000F064FC97
:102850003D2000F054FC06B010BD000030380240AE
:10286000000002400004024000080240001802403C
:10287000F8B504460E46174600250020009094F84F
:102880004400822801D10220F8BD822084F844004F
:102890002068056905F01C05208A4FF4784101EA9B
:1028A000C0200543481100EA8610054325F00205C3
:1028B00045F001052068056100F068FB009012E01A
:1028C00000F064FB0099401AB0F5803F09D3012065
:1028D00084F8440000BF002084F8450000BF0320B6
:1028E000D2E72068056905F001000028E8D12068DA
:1028F000406980B23860012084F844000020C3E7BA
:1029000010B5044600BF94F84500012801D102200B
:1029100010BD012084F8450000BF022084F8440067
:102920002046FEF721FE2046FEF70AFE2046FEF76F
:102930007FFC2046FEF771FC2046FEF763FC012079
:1029400084F8440000BF002084F8450000BF00BFA9
:10295000DEE770B5024600230025002400BF92F890
:102960004500012801D1022070BD012082F84500F8
:1029700000BF022082F8440049B9012082F84400D7
:1029800000BF002082F8450000BF0120ECE7D06ABC
:10299000006800F0004048B1122082F8440000BFF7
:1029A000002082F8450000BF0120DDE740F2F4502E
:1029B000814208D9B1FBF0F3B1FBF0F600FB161031
:1029C00010B15B1C00E00123012B13D1D06A006819
:1029D00040F04050D66A3060C1F30C00D66A706097
:1029E000D06A006840F00040D66A3060D06AC068A3
:1029F000D06232E000242EE0D06A006820F040501F
:102A0000D66A30602CB9D06A006840F08050D66A2F
:102A1000306040F2F450D66A7060581EA04210D167
:102A2000D06A006840F00050D66A3060581EC0EB93
:102A3000C01000EB4000A1EB8005C5F30C00D66A86
:102A40007060D06A006840F00040D66A3060D06A9A
:102A5000C068D062641C9C42CED3106800F58050E0
:102A6000406900F0040048B10426106800F5805069
:102A700046610026106800F580504660012082F80B
:102A8000440000BF002082F8450000BF00BF6BE794
:102A90002DE9F04104460E4617460025A84694F855
:102AA0004400422802D10220BDE8F081422084F88F
:102AB00044002068056905F01C05208A4FF4784120
:102AC00001EAC0200543481100EA8610054345F09D
:102AD000020545F00105B8B221684861206805612A
:102AE00000F054FA804612E000F050FAA0EB080023
:102AF000B0F5803F09D3012084F8440000BF0020D6
:102B000084F8450000BF0320CEE72068056905F082
:102B100001000028E8D1012084F844000020C3E728
:102B20002DE9F04104460E460127002500BF264846
:102B3000007E012802D10220BDE8F0810120224957
:102B4000087600BF4CF25030FEF7C8FE0746002F53
:102B500032D1401E30602068012810D1207C61688D
:102B6000FEF7E4FD4CF25030FEF7B8FE074617487A
:102B7000006848F204018843144908601AE0A56817
:102B800012E0217C2846FEF75FFD4CF25030FEF744
:102B9000A5FE07460D48006820F0FA000B490860C2
:102BA0000FB1356005E06D1CD4E902100844A8425D
:102BB000E7D800BFFEF77EFD00BF0020024908767F
:102BC00000BF3846B8E70000E4140020103C024083
:102BD0000348006840F00040014908600020704749
:102BE000103C02402DE9F04106460F4614461D46B2
:102BF0004FF0010800BF1F48007E012802D10220CB
:102C0000BDE8F08101201B49087600BF4CF250302E
:102C1000FEF764FE8046B8F1000F23D126B9E1B279
:102C20003846FEF7B1FD12E0012E04D1A1B23846BC
:102C3000FEF7D2FD0BE0022E04D121463846FEF706
:102C4000DFFD04E022462B463846FEF7AFFD4CF28E
:102C50005030FEF743FE80460748006820F0010030
:102C60000549086000BF00200249087600BF4046C1
:102C7000C6E70000E4140020103C0240074800684A
:102C800000F0004030B1064804490C39086005489E
:102C9000086001E0012070470020FCE7103C024082
:102CA00023016745AB89EFCD10B5044601F0CAFE9C
:102CB0000A2005F0BBFA1348006838B912A0FDF7E6
:102CC000B7FB02F0CFFE1449086015E00D4800681C
:102CD000012811D111A0FDF7ABFB02F0C3FE0E4994
:102CE0000968401A0C490860084601680FA0FDF702
:102CF0009FFB01201249087040201249086001F032
:102D0000B3FE10BD18024342B0B4CFC2C1CB415094
:102D1000504B45590D0A000020070020CACDB7C509
:102D2000C1CB4150504B45590D0A0000CAB1BCE41B
:102D3000B2EE203D20256420206D730D0A000000B6
:102D400024070020143C014010B5044604480068E4
:102D5000204020B1024804602046FFF7A5FF10BDC7
:102D6000143C0140F8B502460B4600250024002023
:102D70000021E6E0012606FA01F51E6806EA0504D0
:102D8000AC4273D15E68022E02D05E68122E13D15F
:102D9000CF0802F1200656F827004E07F70E0F263F
:102DA000BE40B0434F07FF0E1E69BE403043CF0800
:102DB00002F1200646F8270010684F000326BE40A7
:102DC000B0431E7906F003064F00BE40304310604A
:102DD0005E68012E08D05E68022E05D05E68112E56
:102DE00002D05E68122E13D190684F000326BE40B9
:102DF000B0434F00DE68BE4030439060506801260B
:102E00008E40B0431E79C6F300168E4030435060AA
:102E1000D0684F000326BE40B0434F009E68BE40BE
:102E20003043D0605E6806F08056B6F1805FA8D16E
:102E300000BF00260096454E366846F48046434F54
:102E40003E603E46366806F48046009600BF00BFEE
:102E50003F4E8F0856F827008E07370F0F26BE40CB
:102E6000B0433C4EB24202D100262EE068E03A4E1A
:102E7000B24201D1012628E0384EB24201D10226E9
:102E800023E0374EB24201D103261EE0354EB24256
:102E900001D1042619E0344EB24201D1052614E0D6
:102EA000324EB24201D106260FE0314EB24201D17C
:102EB00007260AE02F4EB24201D1082605E02E4E29
:102EC000B24201D1092600E00A268F073F0FBE401B
:102ED00030431F4E8F0846F82700284E3068A04325
:102EE0005E6806F48036B6F5803F00D12043234E5D
:102EF0003060361D3068A0435E6806F40036B6F5D3
:102F0000003F00D120431D4E361D3060361D306815
:102F1000A0435E6806F48016B6F5801F00D12043FA
:102F2000164E08363060361D3068A0435E6806F4E1
:102F30000016B6F5001F00D12043104E0C3630604D
:102F4000491C1029FFF416AFF8BD000044380240B8
:102F5000083801400000024000040240000802401E
:102F6000000C024000100240001402400018024011
:102F7000001C02400020024000240240003C0140AE
:102F80000AB1816101E00B04836170470148006868
:102F9000704700001800002010B504460CB901204D
:102FA00010BD607B20B900202073204600F01AF885
:102FB0000220607345F2555021680860206840681F
:102FC00020F0070061680843216848602068806835
:102FD0006FF30B00A16808432168886001206073CB
:102FE0000020DDE7704770B50446002500BF207B58
:102FF000012801D1022070BD0120207300BF0220F2
:103000006073FFF7C3FF05460DE0FFF7BFFF401BEE
:10301000B0F57A7F07D90320607300BF00202073CA
:1030200000BF0320E7E72068C068C0F34000002825
:10303000EBD14AF6AA20216808600120607300BF26
:103040000020207300BF00BFD5E7014600BF087B0A
:10305000012801D1022070470120087300BF02201F
:1030600048734CF6CC400A6810604AF6AA200A68F9
:1030700010600120487300BF0020087300BF00BF2C
:10308000E9E7000002480068401C014908607047F9
:103090001800002010B50D48006840F400700B497E
:1030A00008600846006840F48060086008460068D0
:1030B00040F480700860052000F06CF80F2000F0EC
:1030C00007F800F017F8002010BD0000003C024097
:1030D00070B5044600F03EFA4FF47A71B0FBF1F59A
:1030E000284600F0DCFD00222146501E00F014F8B6
:1030F000002070BD08B50020009000BF08BD00BFD3
:1031000000F01F02012191404209920002F1E022E9
:10311000C2F8001100BF70472DE9F05F80460D46F0
:103120001646002701F016FC074639462A46334664
:1031300001F00700C0F1070ABAF1040F02D94FF0FD
:10314000040A01E0C0F1070AD14600F1040ABAF10D
:10315000070F02D24FF0000A01E0A0F1030AD446A3
:103160004FF0010A0AFA09FAAAF1010A0AEA020A68
:103170000AFA0CFA4FF0010B0BFA0CFBABF1010B46
:103180000BEA030B4AEA0B042146404601F0EAFB36
:10319000BDE8F09F00BF00F00702064B19684FF62C
:1031A000FF031940044B0B4343EA0221014B196012
:1031B00000BF70470CED00E00000FA0500BF00BF43
:1031C00000BF00BF00BFBFF34F8F00BF00BF00BFF5
:1031D0000948006800F4E06008490843001D0649FA
:1031E000086000BF00BF00BFBFF34F8F00BF00BF2C
:1031F00000BF00BF00BFFDE70CED00E00000FA05D6
:1032000038B5002400BF002000902348006840F03B
:103210008050214908600846006800F08050009006
:1032200000BF00BF0120010491FAA1F1B1FA81F1C0
:103230001A4A42F82100FFF7A9FE044607E0FFF70B
:10324000A5FE001BB0F57A7F01D9032038BD1448D4
:10325000406800F48030B0F5803FF0D10120410497
:1032600091FAA1F1B1FA81F10C4A42F82100FFF77D
:103270008DFE044607E0FFF789FE001BB0F57A7F5C
:1032800001D90320E2E70648406800F40030B0F5B9
:10329000003FF0D10020D9E74038024000000E4244
:1032A0000070004070B504460E460025A74800682F
:1032B00000F00F00B0426FD2A4490E7008460068BB
:1032C00000F00F00B04201D0012070BD207800F066
:1032D0000200022807D19E48006820F0F000A16893
:1032E00008439B490860207800F0010000283ED088
:1032F0006068012807D1964808380068C0F340404C
:10330000B8B90120E1E76068022802D060680328AC
:1033100007D18F4808380068C0F3406048B90120E1
:10332000D3E78B4808380068C0F3400008B9012093
:10333000CBE78748006820F00300616808438449B0
:103340000860FFF723FE05466068012810D108E0F9
:10335000FFF71CFE401B41F28831884201D903204F
:10336000B3E77B48006800F00C000428F0D1CDE002
:103370006068022811D108E0FFF708FE401B41F207
:103380008831884201D903209FE77148006800F026
:103390000C000828F0D1B9E024E06068032810D1BF
:1033A00008E0FFF7F3FD401B41F28831884201D964
:1033B00003208AE76648006800F00C000328F0D17B
:1033C000A4E008E0FFF7E2FD401B41F288318842AB
:1033D00001D9032079E75E48006800F00C0000285E
:1033E000F0D193E0207800F00200022807D158487D
:1033F000006820F0F000A168084355490860207873
:1034000000F00100002877D06068012807D15048FB
:1034100008380068C0F34040B8B9012055E760683B
:10342000022802D06068032807D14948083800689C
:10343000C0F3406048B9012047E7454808380068B4
:10344000C0F3400008B901203FE74148006820F080
:103450000300616808433E490860FFF797FD054691
:103460006068012810D108E0FFF790FD401B41F291
:103470008831884201D9032027E73548006800F0E9
:103480000C000428F0D137E06068022810D108E071
:10349000FFF77CFD401B41F28831884201D90320AF
:1034A00013E72B48006800F00C000828F0D123E057
:1034B0006068032810D108E0FFF768FD401B41F267
:1034C0008831884201D90320FFE62148006800F0D6
:1034D0000C000328F0D10FE008E0FFF757FD401B78
:1034E00041F28831884201D90320EEE6184800688D
:1034F00000F00C000028F0D114490E700846006856
:1035000000F00F00B04201D00120DEE6207800F08C
:103510000400042807D10E48006820F4E050E16858
:1035200008430B490860207800F00800082808D1FB
:103530000748006820F46040216940EAC10004495E
:1035400008600F20FFF7C4FD0020BEE6003C0240EB
:103550000838024010B500F045F80949096801F043
:10356000F001F02292FAA2F2B2FA82F2D140054AB8
:10357000515CC840044908600846006810BD00005E
:1035800008380240A66D01080400002010B5FFF7BE
:10359000E1FF0749096801F4E0514FF4E05292FA63
:1035A000A2F2B2FA82F2D140024A515CC84010BD88
:1035B00008380240A66D010810B5FFF7CBFF074998
:1035C000096801F460414FF4604292FAA2F2B2FA43
:1035D00082F2D140024A515CC84010BD0838024016
:1035E000A66D010870B50021002200230020274CA1
:1035F000246804F00C0424B1042C04D0082C41D11C
:1036000003E0234840E023483EE0204C241F246888
:1036100004F03F011D4C241F246804F4800484B18D
:103620001C4CB4FBF1F5194C241F246847F6C076F6
:10363000344096FAA6F6B6FA86F6F44005FB04F294
:103640000FE0134CB4FBF1F5104C241F246847F62F
:10365000C076344096FAA6F6B6FA86F6F44005FB34
:1036600004F20A4C241F246804F440344FF440351B
:1036700095FAA5F5B5FA85F5EC40641C6300B2FB3C
:10368000F3F001E0024800BF00BF70BD08380240FF
:103690000024F40040787D0138B5044600252078E8
:1036A00000F00100002866D0F748006800F00C0028
:1036B00004280DD0F448006800F00C00082813D14D
:1036C000F148001F006800F48000B0F5800F0BD1B6
:1036D000ED4808380068C0F3404000284BD06068CF
:1036E000002848D1012038BD0020E749891F087013
:1036F000FFF74CFC054608E0FFF748FC401B41F291
:103700008831884201D90320EDE7DF480838006896
:10371000C0F340400028EFD12079DB49891F0870B1
:103720006068A0B1FFF732FC054608E0FFF72EFC09
:10373000401B41F28831884201D90320D3E7D248A7
:1037400008380068C0F340400028EFD013E0FFF7CE
:103750001DFC054608E0FFF719FC401B41F28831CB
:10376000884201D90320BEE7C74808380068C0F383
:1037700040400028EFD1207800F00200022869D1F3
:10378000C148006800F00C0058B1BF48006800F064
:103790000C00082821D1BC48001F006800F48000FC
:1037A000D8B9B94808380068C0F3400020B1E068D3
:1037B000012801D0012096E7B3480838006820F0BE
:1037C000F800F82292FAA2F2B2FA82F2216991404C
:1037D0000843AD49083908603CE0E06828B301209F
:1037E000AA490860FFF7D2FB054606E0FFF7CEFBCB
:1037F000401B642801D9032075E7A34808380068F6
:10380000C0F340000028F1D09F480838006820F03D
:10381000F800F82292FAA2F2B2FA82F221699140FB
:10382000084399490839086014E000209749086066
:10383000FFF7ACFB054606E0FFF7A8FB401B64283A
:1038400001D903204FE7904808380068C0F34000D2
:103850000028F1D1207800F0080008282CD16069F8
:10386000A8B101208A490860FFF790FB054606E0F1
:10387000FFF78CFB401B642801D9032033E7824803
:103880006C300068C0F340000028F1D014E0002044
:103890007F490860FFF77AFB054606E0FFF776FBF5
:1038A000401B642801D903201DE777486C3000686D
:1038B000C0F340000028F1D1207800F00400042873
:1038C0006FD100BF002000906F483830006840F092
:1038D00080506D49383108600846006800F080501B
:1038E000009000BF00BF6B48006840F480706949D9
:1038F0000860FFF74BFB054606E0FFF747FB401B60
:10390000642801D90320EEE66248006800F4807064
:103910000028F2D000205C4968310870FFF736FBC0
:10392000054608E0FFF732FB401B41F28831884230
:1039300001D90320D7E6544868300068C0F340003E
:103940000028EFD1207A504968310870A068A0B1F2
:10395000FFF71CFB054608E0FFF718FB401B41F290
:103960008831884201D90320BDE6474868300068A5
:10397000C0F340000028EFD013E0FFF707FB054637
:1039800008E0FFF703FB401B41F28831884201D970
:103990000320A8E63C4868300068C0F340000028D7
:1039A000EFD1A069F0B33848006800F00C00082897
:1039B00072D0A069022850D1002034490866FFF770
:1039C000E5FA054606E0FFF7E1FA401B642801D955
:1039D000032088E62C4808380068C0F340600028BF
:1039E000F1D1D4E90701084347F6C07292FAA2F276
:1039F000B2FA82F2616A914008430122A16AC2EBE5
:103A000051014FF4403292FAA2F2B2FA82F291409E
:103A100008434FF0706292FAA2F2B2FA82F2E16ABF
:103A2000914000E03AE008431749091F086001206F
:103A300016490866FFF7AAFA054606E0FFF7A6FA58
:103A4000401B642801D903204DE60F480838006860
:103A5000C0F340600028F1D020E000200B49086648
:103A6000FFF794FA054606E0FFF790FA401B64283A
:103A700001D9032037E6044808380068C0F34060E5
:103A80000028F1D10AE007E0083802400000474270
:103A9000800E474200700040012024E6002022E60C
:103AA00070B504460D460CB9012070BD94F82C0089
:103AB00028B9002084F82D00204600F011F80220DB
:103AC00084F82C00211D2068FDF740FF2946D4E929
:103AD0000002FDF7A5FF012084F82C000020E4E798
:103AE00010B586B0044600BF00200090434800682F
:103AF00040F00100414908600846006800F00100FC
:103B0000009000BF00BF00BF002000903B48083875
:103B1000006840F004003949083908600846006828
:103B200000F00400009000BF00BF00BF0020009024
:103B30000846006840F0080008600846006800F089
:103B40000800009000BF00BF00BF002000900846A2
:103B5000006840F0100008600846006800F010009F
:103B6000009000BF00BF00BF002000900846006822
:103B700040F0200008600846006800F02000009037
:103B800000BF00BF00BF002000900846006840F062
:103B9000400008600846006800F04000009000BF48
:103BA00000BF0D200190022002900120039003200D
:103BB00004900C20059001A91148FFF7D3F84CF2AE
:103BC0000370019001A90F48FFF7CCF84FF68370FE
:103BD000019001A90C48FFF7C5F84FF63F0001908E
:103BE00001A90A48FFF7BEF848F23710019001A971
:103BF0000748FFF7B7F806B010BD0000383802409C
:103C000000080240000C0240001002400014024074
:103C10000018024070B504460D4694F82C000228A6
:103C200000D170BD022084F82C0029462068FDF7E1
:103C3000C7FE012084F82C000020F2E770B504468E
:103C40000D46164694F82C00022800D170BD0220C3
:103C500084F82C00324629462068FDF7B8FE286813
:103C6000022803D1052084F82C0002E0012084F80A
:103C70002C000020EAE7042808D14FF0E021096970
:103C800041F004014FF0E022116107E04FF0E02124
:103C9000096921F004014FF0E0221161704770B50D
:103CA00004462546681EB0F1807F01D301200FE055
:103CB000681E4FF0E02148610F214FF0FF3000F007
:103CC00051FE00204FF0E0218861072008610020AC
:103CD00070BD10B504460CB9012010BD94F8390030
:103CE00028B9002084F83800204600F00CF80220A3
:103CF00084F83900211D206803F080FE012084F83B
:103D000039000020E9E7704701460868C06840F0C4
:103D100001000A68D0600868006840F001000A6885
:103D200010600020704770B504460D46164600BF6F
:103D300094F83800012801D1022070BD012084F8D8
:103D4000380000BF022084F8390036B1042E1BD0A1
:103D5000082E31D00C2E5ED145E02946206803F0B4
:103D6000CDFE2068806940F00800216888612068E5
:103D7000806920F0040021688861206880692969D1
:103D800008432168886147E02946206803F0EEFE79
:103D90002068806940F4006021688861206880693B
:103DA00020F480602168886120688069296940EA80
:103DB0000120216888612FE02946206803F012FF66
:103DC0002068C06940F008002168C8612068C069A7
:103DD00020F004002168C8612068C069296908438F
:103DE0002168C86118E02946206803F037FF206881
:103DF000C06940F400602168C8612068C06920F48F
:103E000080602168C8612068C069296940EA012092
:103E10002168C86100E000BF00BF012084F83900BC
:103E200000BF002084F8380000BF00BF85E710B550
:103E300004460CB9012010BD94F8390028B90020BF
:103E400084F83800204600F00DF8022084F839008C
:103E5000211D206803F0D2FD012084F839000020E4
:103E6000E9E7000010B586B0044600BF00200090CE
:103E70001648006840F002001449086008460068CF
:103E800000F00200009000BF00BF00BF00200090C3
:103E90000E481038006840F002000C4910390860E4
:103EA0000846006800F00200009000BF00BF02203A
:103EB00001900290012003900320049002200590BD
:103EC00001A90348FEF74EFF06B010BD403802407E
:103ED0000004024030B504460D4601222946206800
:103EE00003F0FEFD0C492068884203D00B4920688E
:103EF000884201D1012000E0002028B12068406CF8
:103F000040F40040216848642068006840F00100E7
:103F100021680860002030BD00000140000401401D
:103F20007047014691F839007047F8B504460025FE
:103F300000262068006800F001052068C06800F4D1
:103F400080767DB176B100BF0020009020680068C7
:103F5000009020684068009000BF00BFE06B40F018
:103F60000100E06320680068C0F3400520684069F4
:103F700000F001067DB176B100BF002000902068FE
:103F80000068009020684068009000BF00BFE06BB0
:103F900040F00400E06320680068C0F380052068FA
:103FA000406900F001067DB176B100BF00200090AD
:103FB00020680068009020684068009000BF00BF43
:103FC000E06B40F00200E06320680068C0F3C005C9
:103FD0002068406900F001067DB176B100BF002085
:103FE000009020680068009020684068009000BF42
:103FF00000BFE06B40F00800E06320680068C0F399
:1040000040152068C06800F020061DB116B120469A
:1040100003F0A2FE20680068C0F3C0152068C068E5
:1040200000F080061DB116B1204604F005F82068A6
:104030000068C0F380152068C06800F040061DB11C
:1040400016B1204603F070FEE06B28B1012084F821
:1040500039002046FFF764FFF8BD10B504460CB9DF
:10406000012010BDA06900B100E000BF94F8390044
:1040700028B9002084F83800204600F025F80220F6
:1040800084F839002068C06820F400502168C860B6
:10409000204603F0BFFE2068006920F490402168AC
:1040A00008612068406920F02A0021684861206882
:1040B000C06840F400502168C8600020E06301201F
:1040C00084F839000020CCE710B586B004462249B8
:1040D000206888423ED100BF002000901F48006841
:1040E00040F001001D4908600846006800F001002A
:1040F000009000BF00BF00BF0020009017481430A0
:10410000006840F010001549143108600846006846
:1041100000F01000009000BF00BF48150190022081
:10412000029001200390022004900720059001A92D
:104130000B48FEF717FE4FF48060019001A9084874
:10414000FEF710FE2520FEF7DAFF03221146252098
:10415000FEF7E2FF06B010BD00100140303802400B
:104160000000024030B50346002493F83940012C8A
:1041700001D0122C37D101B10AB9012030BD00BFE6
:1041800093F83800012801D10220F7E7012083F8D5
:10419000380000BF99629A85DA850020D86393F8C9
:1041A0003900122803D1322083F8390002E022209E
:1041B00083F839001868C06840F480701D68E860B2
:1041C0001868406940F001001D68686100BF002068
:1041D00083F8380000BF1868C06840F020001D68F0
:1041E000E8600020CAE70220C8E700001D4A016815
:1041F000914236D11C49098801F4004189BB1A4912
:10420000098801F4804171B1184909780A2903D05D
:104210000021154A118024E01349098841F4004126
:10422000114A11801DE0114909780D2906D10E4966
:10423000098841F480410C4A118012E00B49097849
:10424000094A1288C2F30D02094B9954064909889C
:10425000491C054A118011460988C72901DD002142
:104260001180704700100140280000202A00002023
:1042700004150020704700BFFEE7000010B50020C5
:104280000F4908600F48006820F440600D4908603D
:104290000846006840F48060086000200A49C1F8C0
:1042A0009402022003F0F8FF012005490860022073
:1042B00003F0F2FF00200449C1F8900210BD000095
:1042C00090824342001C02400080434210B500200F
:1042D0000F4908600F48006820F440600D490860ED
:1042E0000846006840F48060086001200A49C1F86F
:1042F0009402022003F0D0FF01200549086002204B
:1043000003F0CAFF00200449C1F8900210BD00006C
:1043100090824342001C02400080434270B5054633
:1043200000241648006820F44060144908600846DC
:1043300000680860002616E000201149086002208D
:1043400003F0AAFF01200F49C1F890026006040E95
:104350000B487C38006808B1601CC4B2012003F02F
:104360009BFF701CC6B2082EE6DB15B9FFF7AEFF47
:1043700001E0FFF783FF204670BD0000001C0240F3
:10438000908243420080434270B50446154800685D
:1043900020F44060134908600846006840F48060DB
:1043A0000860002010490860002517E0E0090E4968
:1043B000091D08606006040E022003F06DFF012055
:1043C0000A49C1F89002022003F066FF0020064966
:1043D0000860022003F060FF681CC5B2082DE5DB11
:1043E00070BD0000001C02409082434200804342A6
:1043F00010B50F48006820F440600D490860084679
:10440000006840F48060086001200A4908600A4999
:10441000C1F89002042003F03FFF00200549086026
:10442000042003F039FF00200349C1F8900210BDB9
:10443000001C0240948243420080434210B50F4862
:10444000006820F440600D4908600846006840F4A8
:104450008060086000200A4908600A49C1F8940297
:10446000042003F019FF0120054908600549C1F83F
:104470009402042003F010FF10BD0000001C024055
:10448000908243420080434210B5002413480068E4
:1044900020F4406011490860084600680860012067
:1044A0000F49086003F0F8FE01200E49C1F89002A0
:1044B00003F0F2FE07E0601CC4B2FA2C03DDFFF744
:1044C000BDFF012010BD0648803800680028F2D1E9
:1044D0000349091F086000BFF4E70000001C024008
:1044E000948243420080434270B504460D4606481C
:1044F00006490860084644608560FEF74DFD0348A4
:10450000FEF7A3FD70BD000000300040401C0020FD
:104510000146FF2001F8010BE02001F8010B00200B
:1045200001F8010B102001F8010B4A2001F8010BE2
:10453000462001F8010B492001F8010B462001F843
:10454000010B002001F8010B012001F8010B0220F2
:1045500001F8010B002001F8010B01F8010B01200B
:1045600001F8010B002001F8010B012001F8010BFB
:10457000002001F8010B01F8010B12207047000028
:104580001CB5FBF7A2FE0121072001F0D9FE642033
:1045900003F04CFE0021072001F0D2FE642003F05E
:1045A00045FEFBF794FE1A4800788DF80000184885
:1045B00040788DF80100164880788DF80200144884
:1045C000C0788DF80300124800798DF80400104877
:1045D00040798DF805000F480F49086001204860B8
:1045E00081030D488160C910C16000210182C0F8BB
:1045F00014D0012181610021C1614FF400010162E9
:10460000FDF76EFF08B900201CBD0120FCE700008B
:10461000A0C50120008002404016002000B587B0F0
:1046200000BF002001902548006840F001002349A8
:1046300008600846006800F00100019000BF00BF5C
:1046400000BF002001900846006840F001000860AB
:104650000846006800F00100019000BF00BF881507
:1046600002900120039004900320059002A91448B1
:10467000FEF778FB082002900120039002200490AE
:104680000320059002A90E48FEF76CFB042002905F
:1046900000200390012004900320059002A90848FF
:1046A000FEF760FB012211020548FEF769FC0022BB
:1046B00008210448FEF764FC07B000BD3038024012
:1046C00000000240001002401CB505220C490D48B4
:1046D00002F09CFF4FF480610B48FCF71EF90920A3
:1046E0002021CDE9001006484289018900230648AF
:1046F000FCF71AFB054908600846008880B21CBD1B
:10470000080700200000080878170020400000205B
:1047100000B587B000BF002001901F48006840F03E
:1047200008001D4908600846006800F00800019074
:1047300000BF00BF4020029001200390049003209E
:10474000059002A91548FEF70DFB0021022001F09B
:10475000F7FD0A2003F06AFD0020114908600A20D5
:1047600003F064FD01200F49C1F8980202F02EFD0C
:1047700040F207620421002001F016FE042100200F
:1047800001F005FE084908800846018807A0FBF7EC
:104790004FFE002007B000BD30380240000C024040
:1047A0009882414200804142440000207265673A8D
:1047B00025640D0A0000000070B505225B495C48C5
:1047C00002F024FFC821012001F0E1FD59490880D1
:1047D0000846018858A0FBF72BFE00241FE004EBDD
:1047E0004400584951F82000022804DD4FF4FA70C3
:1047F00003F01CFD11E004EB4403524D05EB830371
:104800001B899AB204EB440305EB8303197904EB8B
:10481000440315F8230001F0C7FD601C84B24F2C3F
:10482000DDD3C821012001F0B2FD424908800846CD
:10483000018841A0FBF7FCFD002441E004EB4400AB
:10484000414951F82000022804DD4FF4FA7003F0CA
:10485000EDFC33E01C2C0ED1344B1A8904EB4403DD
:10486000394D05EB8303197904EB440315F8230054
:1048700001F09AFD22E01E2C0ED12C4B5A8904EB3C
:104880004403314D05EB8303197904EB440315F818
:10489000230001F089FD11E004EB44032A4D05EBF0
:1048A00083031B899AB204EB440305EB8303197954
:1048B00004EB440315F8230001F076FD601C84B27C
:1048C0002A2CBBD34FF4FA7003F0B0FCC8210120AE
:1048D00001F05DFD174908800846018816A0FBF726
:1048E000A7FD1248C07B00EB800101EBC00209214B
:1048F000002001F059FD4AF24372C621012001F067
:1049000053FD0322C821012001F04EFD4AF24472FA
:10491000C621012001F048FD0322C821012001F039
:1049200043FD4FF4FA7003F081FC70BD08070020CE
:1049300000000808440000207265673A25640D0AEB
:1049400000000000F0760108F874010800BFFEE7DF
:104950007047000002480068C0F302207047000062
:104960000CED00E010B5002807DA0A07140E054A1E
:1049700000F00F031B1FD45403E00A07130E024A72
:10498000135410BD18ED00E000E400E02DE9F04103
:1049900005460E46144600271148007818B112202B
:1049A0002070BDE8F0812878012808D0022807D0BF
:1049B000032802D0042804D100E000BF00BF00BFDC
:1049C00002E001202070ECE700BFFBF7CFFC0746B8
:1049D0006E613846FBF7CEFC0020207000BFE0E798
:1049E000AD0D002010B500F013F801F0FBF901F057
:1049F00027FA01F047FA01F0C5F901F085F901F055
:104A0000DBFA01F07FFA01F0A5FA00F019F810BD09
:104A10000848802102E0491E002204C00029FAD182
:104A2000054A064B1A601A46126822F007021A60FD
:104A300070470000E8ED0120E8EF0120E00D0020C4
:104A40007047000006480078012808D10548007822
:104A5000FF2804D203480078401C024908707047C0
:104A6000BA0D0020AD0D002010B500241A480078C2
:104A7000012830D1FBF77AFC04461848007820B1B1
:104A800016480078401E1549087014480078F8B997
:104A900013480078E0B901F0F1FA12481249097898
:104AA00050F82100114908600F4800781049097832
:104AB00088420DD00D480068C06B401C0B49096846
:104AC000C8630C480068401C0A490860FBF76EFC8C
:104AD0002046FBF74FFC10BDBA0D0020AD0D0020A5
:104AE000AE0D0020F8E40120B00D0020C80D00201C
:104AF000AF0D0020940D00202DE9F04106460F4631
:104B00004FF000082048007810B10020BDE8F08187
:104B1000FBF72CFC80461D480468006820B11B4848
:104B200000684068194908604046FBF723FCFCB167
:104B3000FBF71CFC804616480568D5B10068006884
:104B4000134908604046FBF715FC6E6006EB8700D2
:104B5000A860EE602E61AF820020E8820220207003
:104B60000020208165600BA06061204601F0BEF846
:104B700008E0064800686060044804604046FBF7AF
:104B8000F9FB00242046C1E7AD0D0020980D002060
:104B9000D40D00203F0000002DE9F047044689466F
:104BA00015464FF0000A2078022804D00120287012
:104BB0002046BDE8F0873548007818B10F202870EE
:104BC0002046F6E7FBF7D2FB8246A07A10B14FF001
:104BD000010801E04FF00008B9F1000F03D0B9F16E
:104BE000010F49D121E0B8F1000F17D128A0606171
:104BF00066682848006830602648066000202070FB
:104C000025480068606000202081234804605046E9
:104C1000FBF7B0FB00202870002705E05046FBF7AB
:104C2000A9FB4920287027462DE005E00223042235
:104C30000021204600F0A0FFA07A0028F6D114A0A1
:104C400060616668134800683060124806600020A2
:104C50002070114800686060002020810E480460C8
:104C60005046FBF787FBB8F1010F01D101F0CCF9F9
:104C700000202870002706E05046FBF77BFB07204A
:104C80002870274600BF00BF384692E7AD0D0020D0
:104C90003F000000D40D0020980D00202DE9F047C2
:104CA0000746884615464FF000093878022804D098
:104CB000012028700020BDE8F0873E48007818B138
:104CC000022028700020F6E73B48007818B10D203C
:104CD00028700020EFE7FBF749FB81467C68E08AFB
:104CE00098B12169081D20610E68E08A401EE082AB
:104CF000A1682069884201D1606820614846FBF7BD
:104D000039FB002028703046D5E72C48006890F821
:104D1000340040F004002949096881F8340000207B
:104D20002649096881F8350024480068C0F83080B9
:104D3000384600F09DFF4846FBF71CFB01F064F984
:104D4000FBF714FB81461D48006890F8350020B140
:104D500001280DD002280AD105E018480068466AEB
:104D6000002028700DE000260E20287009E000BF0A
:104D700039461248006800F047FF00260A202870D4
:104D800000BF00BF00200D49096881F834000B49BD
:104D9000096881F8350009490968C8610749096847
:104DA00008620649096848624846FBF7E3FA30465C
:104DB00081E70000AD0D0020AE0D0020C00D0020E9
:104DC0002DE9F04105460E4600272878022802D03A
:104DD0000120BDE8F081FBF7C9FA0746A87A60B167
:104DE000002304223146284600F0C6FE3846FBF771
:104DF000C1FA01F009F90020EBE76C68E08AA18AAA
:104E0000884204DB3846FBF7B5FA1E20E1E7E1688B
:104E1000081DE0600E60E08A401CE082D4E90210C8
:104E2000884201D16068E0603846FBF7A3FA0020B1
:104E3000CFE72DE9F04705460C464FF0000A2878E9
:104E4000022802D00120BDE8F087FBF78FFA8246E6
:104E5000A87A207405F10B0804F10809002705E081
:104E600018F8010B09F8010B781CC7B2082FF7D30B
:104E70006E68F08A18B130690068206001E0002097
:104E80002060F08AA080B08AE0805046FBF772FA7A
:104E90000020D8E710B500240B480078012811D174
:104EA000FBF764FA04460948007840B908480078DE
:104EB000FF2804D206480078401C054908702046A7
:104EC000FBF758FA10BD0000BA0D0020AD0D002010
:104ED000AE0D002010B5002413480078012821D120
:104EE000FBF744FA044611480078C0B9104800782E
:104EF00088B10F480078401E0D49087008460078B8
:104F000028B92046FBF736FA01F07EF80AE0204681
:104F1000FBF730FA06E02046FBF72CFA02E02046C9
:104F2000FBF728FA10BD0000BA0D0020AD0D0020DF
:104F3000AE0D002070B5054600261048007808B177
:104F4000002070BDFBF712FA06460D4804680068A1
:104F500020B10B4800684068094908603046FBF7FB
:104F600009FA4CB10320207025810020606005A063
:104F70006061204600F0BAFE2046E2E7AD0D002059
:104F8000980D00203F0000002DE9F04704468846B8
:104F900015464FF000092078032804D0012028701E
:104FA0002046BDE8F0872D48007818B10F20287002
:104FB0002046F6E7FBF7DAF98146A07A08B1012727
:104FC00000E00027B8F1000F03D0B8F1010F3AD18B
:104FD00019E08FB922A0606100202070214800688C
:104FE0006060002020811F4804604846FBF7C2F93A
:104FF00000202870002605E04846FBF7BBF9492051
:105000002870264626E005E00223012200212046E2
:1050100000F0B2FDA07A0028F6D111A06061002056
:105020002070104800686060002020810D480460F6
:105030004846FBF79FF9012F01D100F0E5FF002062
:105040002870002606E04846FBF794F907202870F0
:10505000264600BF00BF3046A3E70000AD0D00208C
:105060003F000000980D00202DE9F04105460E4656
:10507000144600272878032803D001202070BDE8BB
:10508000F0813248007810B102202070F7E73048F4
:10509000007810B10D202070F1E7FBF767F90746A3
:1050A000288940B12889401E28813846FBF762F9DB
:1050B00000202070E3E72748006890F8340040F0B3
:1050C00001002449096881F8340000202149096859
:1050D00081F835001F4800680663284600F0C8FDC7
:1050E0003846FBF747F900F08FFFFBF73FF907461B
:1050F0001848006890F8350020B1012809D002282E
:1051000006D102E0002020700BE00E20207008E0A5
:1051100000BF29460F48006800F076FD0A20207085
:1051200000BF00BF00200B49096881F8340009491D
:10513000096881F8350007490968C86105490968A7
:1051400008623846FBF716F900BF98E7AD0D00205E
:10515000AE0D0020C00D002070B50446002520785B
:10516000032801D0012070BDFBF700F90546A07AA5
:1051700060B1002301221946204600F0FDFC2846BC
:10518000FBF7F8F800F040FF0020ECE720894FF62D
:10519000FF71884207D22089401C20812846FBF7F6
:1051A000E9F80020DFE72846FBF7E4F83320DAE7E8
:1051B0002DE9F04704460D464FF0000920780328FA
:1051C00002D00120BDE8F087FBF7D0F88146A07A35
:1051D000A87204F10B0705F10208002605E017F894
:1051E000010B08F8010B701CC6B2082EF7D32089FA
:1051F00028804846FBF7BEF80020E3E710B50B48CF
:10520000007890B900F03AFF094800780949087021
:1052100009480749097850F82100084908600846FC
:10522000006807490860FBF7A8F810BDBA0D002018
:10523000B00D0020AF0D0020F8E40120C80D0020C3
:10524000C00D002010B50024022000F09FFBFBF7EA
:105250008DF8044600200B4908602046FBF78AF8C9
:10526000642000F093FBFBF781F8044605480068D2
:10527000054908600120054908702046FBF77AF8C7
:1052800010BD0000BC0D0020A40D0020AC0D0020BE
:1052900010B504462046FBF73DFD10BD2DE9FE4F3D
:1052A00006460F4690461C464FF00009FBF75EF895
:1052B00081461F48007828B14846FBF75BF83C2040
:1052C000BDE8FE8F1B4850F8240060BB012019493F
:1052D00041F824004846FBF74DF800234246394682
:1052E000304600F0CDF98246002000900190034640
:1052F000024651460290204600F0D6FE054635B9DA
:105300000D48007801280CD100F07EFE09E0FBF783
:105310002DF881460020074941F824004846FBF754
:1053200029F82846CCE74846FBF724F82820C7E7A9
:10533000AD0D0020F8E40120BA0D00202DE9F04F5A
:1053400085B081468A4693461C46DDE90F78129D5A
:1053500000200390FBF70AF803902348007830B14F
:105360000398FBF707F83C2005B0BDE8F08F1F4815
:1053700050F8240088BB01201C4941F82400039800
:10538000FAF7F8FF2A464146384600F0BBFF2B46A5
:105390005A465146484600F073F904901198CDE9F9
:1053A000008002953A4620460E9B049900F07CFE50
:1053B000064636B90E48007801280CD100F024FECC
:1053C00009E0FAF7D3FF03900020084941F82400D0
:1053D0000398FAF7CFFF3046C6E7FFE70398FAF7DE
:1053E000C9FF2820C0E70000AD0D0020F8E401202F
:1053F000BA0D002010B504462046FBF78CFC10BD0A
:105400002DE9F041054600274A48007810B14020B8
:10541000BDE8F0813F2D01D13E20F9E7FAF7A6FF64
:105420000746FF2D03D14448006890F836504348A2
:1054300050F8254024B93846FAF79CFF4320E7E7A7
:10544000012C04D13846FAF795FF3D20E0E714F827
:10545000380F3B49085C617888432178384A5054BA
:1054600014F838091146085C30B994F83A103548F8
:105470000078884333490870E06918B12046E16933
:1054800000F0C2FB206A18B12046216A00F0D3FB6D
:10549000A66A16B1304600F063FC0020206384F851
:1054A000340084F8350028480078FF2804D22648C4
:1054B0000078401C244908703846FAF75BFF00F07A
:1054C00059FBFAF753FF07461F48007820B11E48E2
:1054D0000078401E1C490870204600F041F81B4827
:1054E0000078401E194908700020144941F8250031
:1054F000A06930B900206169886115496069086058
:1055000005E0D4E905014861D4E905108861114836
:10551000006860610F4804600FA020653846FAF704
:1055200029FF0E480078012801D100F06DFD002010
:105530006EE70000AD0D0020C00D0020F8E4012052
:10554000B20D0020B10D0020AE0D0020BB0D0020DB
:10555000CC0D0020C40D00203F000000BA0D00203B
:1055600010B504462046FBF7D7FB10BD10B5FBF77E
:10557000D4FB10BD2DE9F04106460F4614464FF00E
:1055800000081548007818B112202070BDE8F0819D
:10559000FAF7ECFE8046FF2E03D11048006890F821
:1055A00036600F4850F826502DB94046FAF7E2FE13
:1055B00043202070EAE7012D05D14046FAF7DAFED4
:1055C00043202070E2E72F654046FAF7D3FE002023
:1055D000207000BFDAE70000AD0D0020C00D0020F4
:1055E000F8E4012010B504462046FBF797FB10BDF8
:1055F00010B5FBF794FB10BD2DE9F04707460D46AB
:105600004FF0000A002028606860FAF7AFFE82467B
:10561000FF2F03D11848006890F83670174850F8EB
:1056200027402CB95046FAF7A5FE4320BDE8F08785
:10563000012C04D15046FAF79DFE4320F6E7207C6A
:1056400000F0010020B95046FAF794FE4520EDE73E
:105650000026D4F80C90D4F808805046FAF78AFE59
:1056600000E0761C58F8041B0029FAD02E60A9EB44
:10567000060068600020D9E7C00D0020F8E4012092
:1056800070B50446101D20F007004FF08076051F0E
:1056900028462E60051F28462C60684E051F2846A8
:1056A0002E604FF01236051F28462E604FF003364D
:1056B000051F28462E604FF00236051F28462E6033
:1056C0007610051F28462E60051F284629604FF0DA
:1056D0001136051F28462E604FF01036051F28464C
:1056E0002E604FF00936051F28462E604FF0083611
:1056F000051F28462E604FF00736051F28462E60EE
:105700004FF00636051F28462E604FF00536051F60
:1057100028462E604FF00436051F28462E6003F001
:105720000405002D7ED0F605051F28462E60444E48
:10573000051F28462E60434E051F28462E60424E08
:10574000051F28462E60414E051F28462E60404EFC
:10575000051F28462E603F4E051F28462E603E4EF0
:10576000051F28462E603D4E051F28462E603C4EE4
:10577000051F28462E603B4E051F28462E603A4ED8
:10578000051F28462E60394E051F28462E60384ECC
:10579000051F28462E60374E051F28462E60364EC0
:1057A000051F28462E604FF08346051F28462E60B1
:1057B000324E051F28462E60314E051F28462E60AA
:1057C000304E051F28462E602F4E051F28462E609E
:1057D0002E4E051F28462E602D4E051F28462E6092
:1057E0002C4E051F28462E604FF08246051F284686
:1057F0002E60294E051F28462E60284E051F28467C
:105800002E60274E051F28462E604FF08146051F4B
:1058100028462E60234E051F28462E603602051F9F
:10582000284600E009E02E604FF07E56051F28460E
:105830002E600026051F28462E6070BD11620008EC
:105840000000F8410000F0410000E8410000E041A4
:105850000000D8410000D0410000C8410000C04114
:105860000000B8410000B0410000A8410000A04184
:105870000000984100009041000088410000704104
:1058800000006041000050410000404100003041F4
:1058900000002041000010410000E0400000C04036
:1058A0000000A040000040402DE9F04105464FF0C7
:1058B0000008FAF75BFD8046FF2D05D120480068FF
:1058C00090F83650012608E01D48006890F8360030
:1058D000A84201D1012600E000261A4850F82540D0
:1058E0002CB94046FAF746FD4820BDE8F081012C6E
:1058F00004D14046FAF73EFD4320F6E794F83870AD
:105900001148C05D94F8391088430F49C8550846BE
:10591000C05D30B994F83A100C48007888430B49C0
:10592000087094F8340040F0080084F834004046D1
:10593000FAF720FD012E01D100F066FB0020D4E72C
:10594000C00D0020F8E40120B20D0020B10D0020B0
:1059500010B50C480068007C00F0040020B1094933
:1059600009680868FAF7ECFC07480068007C00F05A
:10597000040020B1044909680868FAF7EEFCFBF757
:10598000CFF910BDC00D0020C80D002070B5054630
:1059900000261748007800B170BD1648007800B1A5
:1059A000FAE71DB3FAF7E2FC06461348006890F8E0
:1059B00038401248005D1049096891F83910884351
:1059C0000E4908550846005D40B90B48006890F83C
:1059D0003A100B4800788843094908700648006867
:1059E00005633046FAF7C6FC00F00EFB00BFD3E7B4
:1059F000AD0D0020AE0D0020C00D0020B20D002026
:105A0000B10D00202DE9F04105460E4617461C4613
:105A10001248007810B15520BDE8F0811048007898
:105A200008B13220F8E74FF47A7060434FF47A718E
:105A3000B0FBF1F14FF461606843C6EB061200EB76
:105A40008200384400EB4002C2EBC01001EBC008FA
:105A50004046FFF79BFF0020DEE70000AD0D002071
:105A6000AE0D002070B50025FAF780FC054603480E
:105A700004682846FAF77EFC204670BDDC0D002045
:105A800070B5002600F072F8FAF770FC064631484F
:105A90000068401C2F4908603046FAF76BFC2E481E
:105AA0000078012853D12D48007820B1012804D076
:105AB000022809D103E001250BE0002509E00125BA
:105AC00001202649087004E00125002023490870C0
:105AD00000BF00BF05B970BD2148046833E0FAF784
